{
  "contractName": "Campaign",
  "abi": [
    {
      "inputs": [
        {
          "internalType": "uint256",
          "name": "",
          "type": "uint256"
        }
      ],
      "name": "events",
      "outputs": [
        {
          "internalType": "uint256",
          "name": "id",
          "type": "uint256"
        },
        {
          "internalType": "string",
          "name": "data",
          "type": "string"
        }
      ],
      "stateMutability": "view",
      "type": "function"
    },
    {
      "inputs": [
        {
          "internalType": "string",
          "name": "_data",
          "type": "string"
        }
      ],
      "name": "createEvent",
      "outputs": [],
      "stateMutability": "nonpayable",
      "type": "function"
    },
    {
      "inputs": [],
      "name": "getEvents",
      "outputs": [
        {
          "components": [
            {
              "internalType": "uint256",
              "name": "id",
              "type": "uint256"
            },
            {
              "internalType": "string",
              "name": "data",
              "type": "string"
            }
          ],
          "internalType": "struct Campaign.Event[]",
          "name": "",
          "type": "tuple[]"
        }
      ],
      "stateMutability": "view",
      "type": "function"
    }
  ],
  "bytecode": "0x608060405234801561000f575f80fd5b506109cd8061001d5f395ff3fe608060405234801561000f575f80fd5b506004361061003f575f3560e01c80630b79143014610043578063404aa8f9146100745780639bc2bc7114610092575b5f80fd5b61005d600480360381019061005891906102fd565b6100ae565b60405161006b9291906103c1565b60405180910390f35b61007c610162565b604051610089919061053b565b60405180910390f35b6100ac60048036038101906100a79190610687565b610256565b005b5f81815481106100bc575f80fd5b905f5260205f2090600202015f91509050805f0154908060010180546100e1906106fb565b80601f016020809104026020016040519081016040528092919081815260200182805461010d906106fb565b80156101585780601f1061012f57610100808354040283529160200191610158565b820191905f5260205f20905b81548152906001019060200180831161013b57829003601f168201915b5050505050905082565b60605f805480602002602001604051908101604052809291908181526020015f905b8282101561024d578382905f5260205f2090600202016040518060400160405290815f82015481526020016001820180546101be906106fb565b80601f01602080910402602001604051908101604052809291908181526020018280546101ea906106fb565b80156102355780601f1061020c57610100808354040283529160200191610235565b820191905f5260205f20905b81548152906001019060200180831161021857829003601f168201915b50505050508152505081526020019060010190610184565b50505050905090565b5f60405180604001604052805f80549050815260200183815250908060018154018082558091505060019003905f5260205f2090600202015f909190919091505f820151815f015560208201518160010190816102b391906108c8565b50505050565b5f604051905090565b5f80fd5b5f80fd5b5f819050919050565b6102dc816102ca565b81146102e6575f80fd5b50565b5f813590506102f7816102d3565b92915050565b5f60208284031215610312576103116102c2565b5b5f61031f848285016102e9565b91505092915050565b610331816102ca565b82525050565b5f81519050919050565b5f82825260208201905092915050565b5f5b8381101561036e578082015181840152602081019050610353565b5f8484015250505050565b5f601f19601f8301169050919050565b5f61039382610337565b61039d8185610341565b93506103ad818560208601610351565b6103b681610379565b840191505092915050565b5f6040820190506103d45f830185610328565b81810360208301526103e68184610389565b90509392505050565b5f81519050919050565b5f82825260208201905092915050565b5f819050602082019050919050565b610421816102ca565b82525050565b5f82825260208201905092915050565b5f61044182610337565b61044b8185610427565b935061045b818560208601610351565b61046481610379565b840191505092915050565b5f604083015f8301516104845f860182610418565b506020830151848203602086015261049c8282610437565b9150508091505092915050565b5f6104b4838361046f565b905092915050565b5f602082019050919050565b5f6104d2826103ef565b6104dc81856103f9565b9350836020820285016104ee85610409565b805f5b85811015610529578484038952815161050a85826104a9565b9450610515836104bc565b925060208a019950506001810190506104f1565b50829750879550505050505092915050565b5f6020820190508181035f83015261055381846104c8565b905092915050565b5f80fd5b5f80fd5b7f4e487b71000000000000000000000000000000000000000000000000000000005f52604160045260245ffd5b61059982610379565b810181811067ffffffffffffffff821117156105b8576105b7610563565b5b80604052505050565b5f6105ca6102b9565b90506105d68282610590565b919050565b5f67ffffffffffffffff8211156105f5576105f4610563565b5b6105fe82610379565b9050602081019050919050565b828183375f83830152505050565b5f61062b610626846105db565b6105c1565b9050828152602081018484840111156106475761064661055f565b5b61065284828561060b565b509392505050565b5f82601f83011261066e5761066d61055b565b5b813561067e848260208601610619565b91505092915050565b5f6020828403121561069c5761069b6102c2565b5b5f82013567ffffffffffffffff8111156106b9576106b86102c6565b5b6106c58482850161065a565b91505092915050565b7f4e487b71000000000000000000000000000000000000000000000000000000005f52602260045260245ffd5b5f600282049050600182168061071257607f821691505b602082108103610725576107246106ce565b5b50919050565b5f819050815f5260205f209050919050565b5f6020601f8301049050919050565b5f82821b905092915050565b5f600883026107877fffffffffffffffffffffffffffffffffffffffffffffffffffffffffffffffff8261074c565b610791868361074c565b95508019841693508086168417925050509392505050565b5f819050919050565b5f6107cc6107c76107c2846102ca565b6107a9565b6102ca565b9050919050565b5f819050919050565b6107e5836107b2565b6107f96107f1826107d3565b848454610758565b825550505050565b5f90565b61080d610801565b6108188184846107dc565b505050565b5b8181101561083b576108305f82610805565b60018101905061081e565b5050565b601f821115610880576108518161072b565b61085a8461073d565b81016020851015610869578190505b61087d6108758561073d565b83018261081d565b50505b505050565b5f82821c905092915050565b5f6108a05f1984600802610885565b1980831691505092915050565b5f6108b88383610891565b9150826002028217905092915050565b6108d182610337565b67ffffffffffffffff8111156108ea576108e9610563565b5b6108f482546106fb565b6108ff82828561083f565b5f60209050601f831160018114610930575f841561091e578287015190505b61092885826108ad565b86555061098f565b601f19841661093e8661072b565b5f5b8281101561096557848901518255600182019150602085019450602081019050610940565b86831015610982578489015161097e601f891682610891565b8355505b6001600288020188555050505b50505050505056fea264697066735822122001e78cc8a5104d5b178d82cf719a93d694745a44cba0f3414a8be3693975cf7c64736f6c63430008140033",
  "immutableReferences": {},
  "source": "// SPDX-License-Identifier: MIT\npragma solidity ^0.8.20;\n\ncontract Campaign {\n    struct Event {\n        uint id;\n        string data;\n    }\n\n    Event[] public events;\n\n    function createEvent(string memory _data) public {\n        events.push(Event(events.length, _data));\n    }\n\n    function getEvents() public view returns (Event[] memory) {\n        return events;\n    }\n}\n",
  "sourcePath": "/Users/elichapman/Documents/GitHub/campaign-chain/contracts/campaign.sol",
  "compiler": {
    "name": "solc",
    "version": "0.8.20+commit.a1b79de6.Emscripten.clang"
  },
  "schemaVersion": "3.4.16",
  "updatedAt": "2024-07-25T00:19:01.166Z",
  "devdoc": {
    "kind": "dev",
    "methods": {},
    "version": 1
  },
  "userdoc": {
    "kind": "user",
    "methods": {},
    "version": 1
  }
}