{
  "contractName": "PlayerNFT",
  "abi": [
    {
      "inputs": [
        {
          "internalType": "address",
          "name": "initialOwner",
          "type": "address"
        }
      ],
      "stateMutability": "nonpayable",
      "type": "constructor"
    },
    {
      "inputs": [
        {
          "internalType": "address",
          "name": "sender",
          "type": "address"
        },
        {
          "internalType": "uint256",
          "name": "tokenId",
          "type": "uint256"
        },
        {
          "internalType": "address",
          "name": "owner",
          "type": "address"
        }
      ],
      "name": "ERC721IncorrectOwner",
      "type": "error"
    },
    {
      "inputs": [
        {
          "internalType": "address",
          "name": "operator",
          "type": "address"
        },
        {
          "internalType": "uint256",
          "name": "tokenId",
          "type": "uint256"
        }
      ],
      "name": "ERC721InsufficientApproval",
      "type": "error"
    },
    {
      "inputs": [
        {
          "internalType": "address",
          "name": "approver",
          "type": "address"
        }
      ],
      "name": "ERC721InvalidApprover",
      "type": "error"
    },
    {
      "inputs": [
        {
          "internalType": "address",
          "name": "operator",
          "type": "address"
        }
      ],
      "name": "ERC721InvalidOperator",
      "type": "error"
    },
    {
      "inputs": [
        {
          "internalType": "address",
          "name": "owner",
          "type": "address"
        }
      ],
      "name": "ERC721InvalidOwner",
      "type": "error"
    },
    {
      "inputs": [
        {
          "internalType": "address",
          "name": "receiver",
          "type": "address"
        }
      ],
      "name": "ERC721InvalidReceiver",
      "type": "error"
    },
    {
      "inputs": [
        {
          "internalType": "address",
          "name": "sender",
          "type": "address"
        }
      ],
      "name": "ERC721InvalidSender",
      "type": "error"
    },
    {
      "inputs": [
        {
          "internalType": "uint256",
          "name": "tokenId",
          "type": "uint256"
        }
      ],
      "name": "ERC721NonexistentToken",
      "type": "error"
    },
    {
      "inputs": [
        {
          "internalType": "address",
          "name": "owner",
          "type": "address"
        }
      ],
      "name": "OwnableInvalidOwner",
      "type": "error"
    },
    {
      "inputs": [
        {
          "internalType": "address",
          "name": "account",
          "type": "address"
        }
      ],
      "name": "OwnableUnauthorizedAccount",
      "type": "error"
    },
    {
      "anonymous": false,
      "inputs": [
        {
          "indexed": true,
          "internalType": "address",
          "name": "owner",
          "type": "address"
        },
        {
          "indexed": true,
          "internalType": "address",
          "name": "approved",
          "type": "address"
        },
        {
          "indexed": true,
          "internalType": "uint256",
          "name": "tokenId",
          "type": "uint256"
        }
      ],
      "name": "Approval",
      "type": "event"
    },
    {
      "anonymous": false,
      "inputs": [
        {
          "indexed": true,
          "internalType": "address",
          "name": "owner",
          "type": "address"
        },
        {
          "indexed": true,
          "internalType": "address",
          "name": "operator",
          "type": "address"
        },
        {
          "indexed": false,
          "internalType": "bool",
          "name": "approved",
          "type": "bool"
        }
      ],
      "name": "ApprovalForAll",
      "type": "event"
    },
    {
      "anonymous": false,
      "inputs": [
        {
          "indexed": true,
          "internalType": "address",
          "name": "previousOwner",
          "type": "address"
        },
        {
          "indexed": true,
          "internalType": "address",
          "name": "newOwner",
          "type": "address"
        }
      ],
      "name": "OwnershipTransferred",
      "type": "event"
    },
    {
      "anonymous": false,
      "inputs": [
        {
          "indexed": true,
          "internalType": "address",
          "name": "from",
          "type": "address"
        },
        {
          "indexed": true,
          "internalType": "address",
          "name": "to",
          "type": "address"
        },
        {
          "indexed": true,
          "internalType": "uint256",
          "name": "tokenId",
          "type": "uint256"
        }
      ],
      "name": "Transfer",
      "type": "event"
    },
    {
      "inputs": [
        {
          "internalType": "address",
          "name": "to",
          "type": "address"
        },
        {
          "internalType": "uint256",
          "name": "tokenId",
          "type": "uint256"
        }
      ],
      "name": "approve",
      "outputs": [],
      "stateMutability": "nonpayable",
      "type": "function"
    },
    {
      "inputs": [
        {
          "internalType": "address",
          "name": "owner",
          "type": "address"
        }
      ],
      "name": "balanceOf",
      "outputs": [
        {
          "internalType": "uint256",
          "name": "",
          "type": "uint256"
        }
      ],
      "stateMutability": "view",
      "type": "function"
    },
    {
      "inputs": [
        {
          "internalType": "uint256",
          "name": "tokenId",
          "type": "uint256"
        }
      ],
      "name": "getApproved",
      "outputs": [
        {
          "internalType": "address",
          "name": "",
          "type": "address"
        }
      ],
      "stateMutability": "view",
      "type": "function"
    },
    {
      "inputs": [
        {
          "internalType": "address",
          "name": "owner",
          "type": "address"
        },
        {
          "internalType": "address",
          "name": "operator",
          "type": "address"
        }
      ],
      "name": "isApprovedForAll",
      "outputs": [
        {
          "internalType": "bool",
          "name": "",
          "type": "bool"
        }
      ],
      "stateMutability": "view",
      "type": "function"
    },
    {
      "inputs": [],
      "name": "name",
      "outputs": [
        {
          "internalType": "string",
          "name": "",
          "type": "string"
        }
      ],
      "stateMutability": "view",
      "type": "function"
    },
    {
      "inputs": [],
      "name": "nextTokenId",
      "outputs": [
        {
          "internalType": "uint256",
          "name": "",
          "type": "uint256"
        }
      ],
      "stateMutability": "view",
      "type": "function"
    },
    {
      "inputs": [],
      "name": "owner",
      "outputs": [
        {
          "internalType": "address",
          "name": "",
          "type": "address"
        }
      ],
      "stateMutability": "view",
      "type": "function"
    },
    {
      "inputs": [
        {
          "internalType": "uint256",
          "name": "tokenId",
          "type": "uint256"
        }
      ],
      "name": "ownerOf",
      "outputs": [
        {
          "internalType": "address",
          "name": "",
          "type": "address"
        }
      ],
      "stateMutability": "view",
      "type": "function"
    },
    {
      "inputs": [],
      "name": "renounceOwnership",
      "outputs": [],
      "stateMutability": "nonpayable",
      "type": "function"
    },
    {
      "inputs": [
        {
          "internalType": "address",
          "name": "from",
          "type": "address"
        },
        {
          "internalType": "address",
          "name": "to",
          "type": "address"
        },
        {
          "internalType": "uint256",
          "name": "tokenId",
          "type": "uint256"
        }
      ],
      "name": "safeTransferFrom",
      "outputs": [],
      "stateMutability": "nonpayable",
      "type": "function"
    },
    {
      "inputs": [
        {
          "internalType": "address",
          "name": "from",
          "type": "address"
        },
        {
          "internalType": "address",
          "name": "to",
          "type": "address"
        },
        {
          "internalType": "uint256",
          "name": "tokenId",
          "type": "uint256"
        },
        {
          "internalType": "bytes",
          "name": "data",
          "type": "bytes"
        }
      ],
      "name": "safeTransferFrom",
      "outputs": [],
      "stateMutability": "nonpayable",
      "type": "function"
    },
    {
      "inputs": [
        {
          "internalType": "address",
          "name": "operator",
          "type": "address"
        },
        {
          "internalType": "bool",
          "name": "approved",
          "type": "bool"
        }
      ],
      "name": "setApprovalForAll",
      "outputs": [],
      "stateMutability": "nonpayable",
      "type": "function"
    },
    {
      "inputs": [
        {
          "internalType": "bytes4",
          "name": "interfaceId",
          "type": "bytes4"
        }
      ],
      "name": "supportsInterface",
      "outputs": [
        {
          "internalType": "bool",
          "name": "",
          "type": "bool"
        }
      ],
      "stateMutability": "view",
      "type": "function"
    },
    {
      "inputs": [],
      "name": "symbol",
      "outputs": [
        {
          "internalType": "string",
          "name": "",
          "type": "string"
        }
      ],
      "stateMutability": "view",
      "type": "function"
    },
    {
      "inputs": [
        {
          "internalType": "uint256",
          "name": "tokenId",
          "type": "uint256"
        }
      ],
      "name": "tokenURI",
      "outputs": [
        {
          "internalType": "string",
          "name": "",
          "type": "string"
        }
      ],
      "stateMutability": "view",
      "type": "function"
    },
    {
      "inputs": [
        {
          "internalType": "address",
          "name": "from",
          "type": "address"
        },
        {
          "internalType": "address",
          "name": "to",
          "type": "address"
        },
        {
          "internalType": "uint256",
          "name": "tokenId",
          "type": "uint256"
        }
      ],
      "name": "transferFrom",
      "outputs": [],
      "stateMutability": "nonpayable",
      "type": "function"
    },
    {
      "inputs": [
        {
          "internalType": "address",
          "name": "newOwner",
          "type": "address"
        }
      ],
      "name": "transferOwnership",
      "outputs": [],
      "stateMutability": "nonpayable",
      "type": "function"
    },
    {
      "inputs": [
        {
          "internalType": "string",
          "name": "publicInfo",
          "type": "string"
        },
        {
          "internalType": "string",
          "name": "encryptedInfo",
          "type": "string"
        }
      ],
      "name": "mintPlayerNFT",
      "outputs": [],
      "stateMutability": "nonpayable",
      "type": "function"
    },
    {
      "inputs": [
        {
          "internalType": "uint256",
          "name": "tokenId",
          "type": "uint256"
        }
      ],
      "name": "getPlayerPublicInfo",
      "outputs": [
        {
          "internalType": "string",
          "name": "",
          "type": "string"
        }
      ],
      "stateMutability": "view",
      "type": "function"
    },
    {
      "inputs": [
        {
          "internalType": "uint256",
          "name": "tokenId",
          "type": "uint256"
        }
      ],
      "name": "getPlayerEncryptedInfo",
      "outputs": [
        {
          "internalType": "string",
          "name": "",
          "type": "string"
        }
      ],
      "stateMutability": "view",
      "type": "function"
    }
  ],
  "bytecode": "0x608060405234801562000010575f80fd5b5060405162002cce38038062002cce83398181016040528101906200003691906200027c565b806040518060400160405280600a81526020017f44264420506c61796572000000000000000000000000000000000000000000008152506040518060400160405280600381526020017f4444500000000000000000000000000000000000000000000000000000000000815250815f9081620000b3919062000510565b508060019081620000c5919062000510565b5050505f73ffffffffffffffffffffffffffffffffffffffff168173ffffffffffffffffffffffffffffffffffffffff16036200013b575f6040517f1e4fbdf700000000000000000000000000000000000000000000000000000000815260040162000132919062000605565b60405180910390fd5b6200014c816200015460201b60201c565b505062000620565b5f60065f9054906101000a900473ffffffffffffffffffffffffffffffffffffffff1690508160065f6101000a81548173ffffffffffffffffffffffffffffffffffffffff021916908373ffffffffffffffffffffffffffffffffffffffff1602179055508173ffffffffffffffffffffffffffffffffffffffff168173ffffffffffffffffffffffffffffffffffffffff167f8be0079c531659141344cd1fd0a4f28419497f9722a3daafe3b4186f6b6457e060405160405180910390a35050565b5f80fd5b5f73ffffffffffffffffffffffffffffffffffffffff82169050919050565b5f62000246826200021b565b9050919050565b62000258816200023a565b811462000263575f80fd5b50565b5f8151905062000276816200024d565b92915050565b5f6020828403121562000294576200029362000217565b5b5f620002a38482850162000266565b91505092915050565b5f81519050919050565b7f4e487b71000000000000000000000000000000000000000000000000000000005f52604160045260245ffd5b7f4e487b71000000000000000000000000000000000000000000000000000000005f52602260045260245ffd5b5f60028204905060018216806200032857607f821691505b6020821081036200033e576200033d620002e3565b5b50919050565b5f819050815f5260205f209050919050565b5f6020601f8301049050919050565b5f82821b905092915050565b5f60088302620003a27fffffffffffffffffffffffffffffffffffffffffffffffffffffffffffffffff8262000365565b620003ae868362000365565b95508019841693508086168417925050509392505050565b5f819050919050565b5f819050919050565b5f620003f8620003f2620003ec84620003c6565b620003cf565b620003c6565b9050919050565b5f819050919050565b6200041383620003d8565b6200042b6200042282620003ff565b84845462000371565b825550505050565b5f90565b6200044162000433565b6200044e81848462000408565b505050565b5b818110156200047557620004695f8262000437565b60018101905062000454565b5050565b601f821115620004c4576200048e8162000344565b620004998462000356565b81016020851015620004a9578190505b620004c1620004b88562000356565b83018262000453565b50505b505050565b5f82821c905092915050565b5f620004e65f1984600802620004c9565b1980831691505092915050565b5f620005008383620004d5565b9150826002028217905092915050565b6200051b82620002ac565b67ffffffffffffffff811115620005375762000536620002b6565b5b62000543825462000310565b6200055082828562000479565b5f60209050601f83116001811462000586575f841562000571578287015190505b6200057d8582620004f3565b865550620005ec565b601f198416620005968662000344565b5f5b82811015620005bf5784890151825560018201915060208501945060208101905062000598565b86831015620005df5784890151620005db601f891682620004d5565b8355505b6001600288020188555050505b505050505050565b620005ff816200023a565b82525050565b5f6020820190506200061a5f830184620005f4565b92915050565b6126a0806200062e5f395ff3fe608060405234801561000f575f80fd5b506004361061012a575f3560e01c806375794a3c116100ab578063b88d4fde1161006f578063b88d4fde1461032c578063c87b56dd14610348578063e985e9c514610378578063f2bb7217146103a8578063f2fde38b146103d85761012a565b806375794a3c146102865780638da5cb5b146102a45780638f2012b5146102c257806395d89b41146102f2578063a22cb465146103105761012a565b806323b872dd116100f257806323b872dd146101e457806342842e0e146102005780636352211e1461021c57806370a082311461024c578063715018a61461027c5761012a565b806301ffc9a71461012e578063021f0f791461015e57806306fdde031461017a578063081812fc14610198578063095ea7b3146101c8575b5f80fd5b61014860048036038101906101439190611ad5565b6103f4565b6040516101559190611b1a565b60405180910390f35b61017860048036038101906101739190611c6f565b6104d5565b005b610182610546565b60405161018f9190611d5f565b60405180910390f35b6101b260048036038101906101ad9190611db2565b6105d5565b6040516101bf9190611e1c565b60405180910390f35b6101e260048036038101906101dd9190611e5f565b6105f0565b005b6101fe60048036038101906101f99190611e9d565b610606565b005b61021a60048036038101906102159190611e9d565b610705565b005b61023660048036038101906102319190611db2565b610724565b6040516102439190611e1c565b60405180910390f35b61026660048036038101906102619190611eed565b610735565b6040516102739190611f27565b60405180910390f35b6102846107eb565b005b61028e6107fe565b60405161029b9190611f27565b60405180910390f35b6102ac610804565b6040516102b99190611e1c565b60405180910390f35b6102dc60048036038101906102d79190611db2565b61082c565b6040516102e99190611d5f565b60405180910390f35b6102fa610943565b6040516103079190611d5f565b60405180910390f35b61032a60048036038101906103259190611f6a565b6109d3565b005b61034660048036038101906103419190612046565b6109e9565b005b610362600480360381019061035d9190611db2565b610a06565b60405161036f9190611d5f565b60405180910390f35b610392600480360381019061038d91906120c6565b610a6c565b60405161039f9190611b1a565b60405180910390f35b6103c260048036038101906103bd9190611db2565b610afa565b6040516103cf9190611d5f565b60405180910390f35b6103f260048036038101906103ed9190611eed565b610b9b565b005b5f7f80ac58cd000000000000000000000000000000000000000000000000000000007bffffffffffffffffffffffffffffffffffffffffffffffffffffffff1916827bffffffffffffffffffffffffffffffffffffffffffffffffffffffff191614806104be57507f5b5e139f000000000000000000000000000000000000000000000000000000007bffffffffffffffffffffffffffffffffffffffffffffffffffffffff1916827bffffffffffffffffffffffffffffffffffffffffffffffffffffffff1916145b806104ce57506104cd82610c1f565b5b9050919050565b6104dd610c88565b6104e933600754610d0f565b8160085f60075481526020019081526020015f20908161050991906122fe565b508060095f60075481526020019081526020015f20908161052a91906122fe565b5060075f81548092919061053d906123fa565b91905055505050565b60605f805461055490612131565b80601f016020809104026020016040519081016040528092919081815260200182805461058090612131565b80156105cb5780601f106105a2576101008083540402835291602001916105cb565b820191905f5260205f20905b8154815290600101906020018083116105ae57829003601f168201915b5050505050905090565b5f6105df82610e02565b506105e982610e88565b9050919050565b61060282826105fd610ec1565b610ec8565b5050565b5f73ffffffffffffffffffffffffffffffffffffffff168273ffffffffffffffffffffffffffffffffffffffff1603610676575f6040517f64a0ae9200000000000000000000000000000000000000000000000000000000815260040161066d9190611e1c565b60405180910390fd5b5f6106898383610684610ec1565b610eda565b90508373ffffffffffffffffffffffffffffffffffffffff168173ffffffffffffffffffffffffffffffffffffffff16146106ff578382826040517f64283d7b0000000000000000000000000000000000000000000000000000000081526004016106f693929190612441565b60405180910390fd5b50505050565b61071f83838360405180602001604052805f8152506109e9565b505050565b5f61072e82610e02565b9050919050565b5f8073ffffffffffffffffffffffffffffffffffffffff168273ffffffffffffffffffffffffffffffffffffffff16036107a6575f6040517f89c62b6400000000000000000000000000000000000000000000000000000000815260040161079d9190611e1c565b60405180910390fd5b60035f8373ffffffffffffffffffffffffffffffffffffffff1673ffffffffffffffffffffffffffffffffffffffff1681526020019081526020015f20549050919050565b6107f3610c88565b6107fc5f6110e5565b565b60075481565b5f60065f9054906101000a900473ffffffffffffffffffffffffffffffffffffffff16905090565b60603373ffffffffffffffffffffffffffffffffffffffff1661084e83610724565b73ffffffffffffffffffffffffffffffffffffffff16146108a4576040517f08c379a000000000000000000000000000000000000000000000000000000000815260040161089b906124c0565b60405180910390fd5b60095f8381526020019081526020015f2080546108c090612131565b80601f01602080910402602001604051908101604052809291908181526020018280546108ec90612131565b80156109375780601f1061090e57610100808354040283529160200191610937565b820191905f5260205f20905b81548152906001019060200180831161091a57829003601f168201915b50505050509050919050565b60606001805461095290612131565b80601f016020809104026020016040519081016040528092919081815260200182805461097e90612131565b80156109c95780601f106109a0576101008083540402835291602001916109c9565b820191905f5260205f20905b8154815290600101906020018083116109ac57829003601f168201915b5050505050905090565b6109e56109de610ec1565b83836111a8565b5050565b6109f4848484610606565b610a0084848484611311565b50505050565b6060610a1182610e02565b505f610a1b6114c3565b90505f815111610a395760405180602001604052805f815250610a64565b80610a43846114d9565b604051602001610a54929190612518565b6040516020818303038152906040525b915050919050565b5f60055f8473ffffffffffffffffffffffffffffffffffffffff1673ffffffffffffffffffffffffffffffffffffffff1681526020019081526020015f205f8373ffffffffffffffffffffffffffffffffffffffff1673ffffffffffffffffffffffffffffffffffffffff1681526020019081526020015f205f9054906101000a900460ff16905092915050565b606060085f8381526020019081526020015f208054610b1890612131565b80601f0160208091040260200160405190810160405280929190818152602001828054610b4490612131565b8015610b8f5780601f10610b6657610100808354040283529160200191610b8f565b820191905f5260205f20905b815481529060010190602001808311610b7257829003601f168201915b50505050509050919050565b610ba3610c88565b5f73ffffffffffffffffffffffffffffffffffffffff168173ffffffffffffffffffffffffffffffffffffffff1603610c13575f6040517f1e4fbdf7000000000000000000000000000000000000000000000000000000008152600401610c0a9190611e1c565b60405180910390fd5b610c1c816110e5565b50565b5f7f01ffc9a7000000000000000000000000000000000000000000000000000000007bffffffffffffffffffffffffffffffffffffffffffffffffffffffff1916827bffffffffffffffffffffffffffffffffffffffffffffffffffffffff1916149050919050565b610c90610ec1565b73ffffffffffffffffffffffffffffffffffffffff16610cae610804565b73ffffffffffffffffffffffffffffffffffffffff1614610d0d57610cd1610ec1565b6040517f118cdaa7000000000000000000000000000000000000000000000000000000008152600401610d049190611e1c565b60405180910390fd5b565b5f73ffffffffffffffffffffffffffffffffffffffff168273ffffffffffffffffffffffffffffffffffffffff1603610d7f575f6040517f64a0ae92000000000000000000000000000000000000000000000000000000008152600401610d769190611e1c565b60405180910390fd5b5f610d8b83835f610eda565b90505f73ffffffffffffffffffffffffffffffffffffffff168173ffffffffffffffffffffffffffffffffffffffff1614610dfd575f6040517f73c6ac6e000000000000000000000000000000000000000000000000000000008152600401610df49190611e1c565b60405180910390fd5b505050565b5f80610e0d836115a3565b90505f73ffffffffffffffffffffffffffffffffffffffff168173ffffffffffffffffffffffffffffffffffffffff1603610e7f57826040517f7e273289000000000000000000000000000000000000000000000000000000008152600401610e769190611f27565b60405180910390fd5b80915050919050565b5f60045f8381526020019081526020015f205f9054906101000a900473ffffffffffffffffffffffffffffffffffffffff169050919050565b5f33905090565b610ed583838360016115dc565b505050565b5f80610ee5846115a3565b90505f73ffffffffffffffffffffffffffffffffffffffff168373ffffffffffffffffffffffffffffffffffffffff1614610f2657610f2581848661179b565b5b5f73ffffffffffffffffffffffffffffffffffffffff168173ffffffffffffffffffffffffffffffffffffffff1614610fb157610f655f855f806115dc565b600160035f8373ffffffffffffffffffffffffffffffffffffffff1673ffffffffffffffffffffffffffffffffffffffff1681526020019081526020015f205f82825403925050819055505b5f73ffffffffffffffffffffffffffffffffffffffff168573ffffffffffffffffffffffffffffffffffffffff161461103057600160035f8773ffffffffffffffffffffffffffffffffffffffff1673ffffffffffffffffffffffffffffffffffffffff1681526020019081526020015f205f82825401925050819055505b8460025f8681526020019081526020015f205f6101000a81548173ffffffffffffffffffffffffffffffffffffffff021916908373ffffffffffffffffffffffffffffffffffffffff160217905550838573ffffffffffffffffffffffffffffffffffffffff168273ffffffffffffffffffffffffffffffffffffffff167fddf252ad1be2c89b69c2b068fc378daa952ba7f163c4a11628f55a4df523b3ef60405160405180910390a4809150509392505050565b5f60065f9054906101000a900473ffffffffffffffffffffffffffffffffffffffff1690508160065f6101000a81548173ffffffffffffffffffffffffffffffffffffffff021916908373ffffffffffffffffffffffffffffffffffffffff1602179055508173ffffffffffffffffffffffffffffffffffffffff168173ffffffffffffffffffffffffffffffffffffffff167f8be0079c531659141344cd1fd0a4f28419497f9722a3daafe3b4186f6b6457e060405160405180910390a35050565b5f73ffffffffffffffffffffffffffffffffffffffff168273ffffffffffffffffffffffffffffffffffffffff160361121857816040517f5b08ba1800000000000000000000000000000000000000000000000000000000815260040161120f9190611e1c565b60405180910390fd5b8060055f8573ffffffffffffffffffffffffffffffffffffffff1673ffffffffffffffffffffffffffffffffffffffff1681526020019081526020015f205f8473ffffffffffffffffffffffffffffffffffffffff1673ffffffffffffffffffffffffffffffffffffffff1681526020019081526020015f205f6101000a81548160ff0219169083151502179055508173ffffffffffffffffffffffffffffffffffffffff168373ffffffffffffffffffffffffffffffffffffffff167f17307eab39ab6107e8899845ad3d59bd9653f200f220920489ca2b5937696c31836040516113049190611b1a565b60405180910390a3505050565b5f8373ffffffffffffffffffffffffffffffffffffffff163b11156114bd578273ffffffffffffffffffffffffffffffffffffffff1663150b7a02611354610ec1565b8685856040518563ffffffff1660e01b8152600401611376949392919061258d565b6020604051808303815f875af19250505080156113b157506040513d601f19601f820116820180604052508101906113ae91906125eb565b60015b611432573d805f81146113df576040519150601f19603f3d011682016040523d82523d5f602084013e6113e4565b606091505b505f81510361142a57836040517f64a0ae920000000000000000000000000000000000000000000000000000000081526004016114219190611e1c565b60405180910390fd5b805181602001fd5b63150b7a0260e01b7bffffffffffffffffffffffffffffffffffffffffffffffffffffffff1916817bffffffffffffffffffffffffffffffffffffffffffffffffffffffff1916146114bb57836040517f64a0ae920000000000000000000000000000000000000000000000000000000081526004016114b29190611e1c565b60405180910390fd5b505b50505050565b606060405180602001604052805f815250905090565b60605f60016114e78461185e565b0190505f8167ffffffffffffffff81111561150557611504611b4b565b5b6040519080825280601f01601f1916602001820160405280156115375781602001600182028036833780820191505090505b5090505f82602001820190505b600115611598578080600190039150507f3031323334353637383961626364656600000000000000000000000000000000600a86061a8153600a858161158d5761158c612616565b5b0494505f8503611544575b819350505050919050565b5f60025f8381526020019081526020015f205f9054906101000a900473ffffffffffffffffffffffffffffffffffffffff169050919050565b808061161457505f73ffffffffffffffffffffffffffffffffffffffff168273ffffffffffffffffffffffffffffffffffffffff1614155b15611746575f61162384610e02565b90505f73ffffffffffffffffffffffffffffffffffffffff168373ffffffffffffffffffffffffffffffffffffffff161415801561168d57508273ffffffffffffffffffffffffffffffffffffffff168173ffffffffffffffffffffffffffffffffffffffff1614155b80156116a0575061169e8184610a6c565b155b156116e257826040517fa9fbf51f0000000000000000000000000000000000000000000000000000000081526004016116d99190611e1c565b60405180910390fd5b811561174457838573ffffffffffffffffffffffffffffffffffffffff168273ffffffffffffffffffffffffffffffffffffffff167f8c5be1e5ebec7d5bd14f71427d1e84f3dd0314c0f7b2291e5b200ac8c7c3b92560405160405180910390a45b505b8360045f8581526020019081526020015f205f6101000a81548173ffffffffffffffffffffffffffffffffffffffff021916908373ffffffffffffffffffffffffffffffffffffffff16021790555050505050565b6117a68383836119af565b611859575f73ffffffffffffffffffffffffffffffffffffffff168373ffffffffffffffffffffffffffffffffffffffff160361181a57806040517f7e2732890000000000000000000000000000000000000000000000000000000081526004016118119190611f27565b60405180910390fd5b81816040517f177e802f000000000000000000000000000000000000000000000000000000008152600401611850929190612643565b60405180910390fd5b505050565b5f805f90507a184f03e93ff9f4daa797ed6e38ed64bf6a1f01000000000000000083106118ba577a184f03e93ff9f4daa797ed6e38ed64bf6a1f01000000000000000083816118b0576118af612616565b5b0492506040810190505b6d04ee2d6d415b85acef810000000083106118f7576d04ee2d6d415b85acef810000000083816118ed576118ec612616565b5b0492506020810190505b662386f26fc10000831061192657662386f26fc10000838161191c5761191b612616565b5b0492506010810190505b6305f5e100831061194f576305f5e100838161194557611944612616565b5b0492506008810190505b612710831061197457612710838161196a57611969612616565b5b0492506004810190505b60648310611997576064838161198d5761198c612616565b5b0492506002810190505b600a83106119a6576001810190505b80915050919050565b5f8073ffffffffffffffffffffffffffffffffffffffff168373ffffffffffffffffffffffffffffffffffffffff1614158015611a6657508273ffffffffffffffffffffffffffffffffffffffff168473ffffffffffffffffffffffffffffffffffffffff161480611a275750611a268484610a6c565b5b80611a6557508273ffffffffffffffffffffffffffffffffffffffff16611a4d83610e88565b73ffffffffffffffffffffffffffffffffffffffff16145b5b90509392505050565b5f604051905090565b5f80fd5b5f80fd5b5f7fffffffff0000000000000000000000000000000000000000000000000000000082169050919050565b611ab481611a80565b8114611abe575f80fd5b50565b5f81359050611acf81611aab565b92915050565b5f60208284031215611aea57611ae9611a78565b5b5f611af784828501611ac1565b91505092915050565b5f8115159050919050565b611b1481611b00565b82525050565b5f602082019050611b2d5f830184611b0b565b92915050565b5f80fd5b5f80fd5b5f601f19601f8301169050919050565b7f4e487b71000000000000000000000000000000000000000000000000000000005f52604160045260245ffd5b611b8182611b3b565b810181811067ffffffffffffffff82111715611ba057611b9f611b4b565b5b80604052505050565b5f611bb2611a6f565b9050611bbe8282611b78565b919050565b5f67ffffffffffffffff821115611bdd57611bdc611b4b565b5b611be682611b3b565b9050602081019050919050565b828183375f83830152505050565b5f611c13611c0e84611bc3565b611ba9565b905082815260208101848484011115611c2f57611c2e611b37565b5b611c3a848285611bf3565b509392505050565b5f82601f830112611c5657611c55611b33565b5b8135611c66848260208601611c01565b91505092915050565b5f8060408385031215611c8557611c84611a78565b5b5f83013567ffffffffffffffff811115611ca257611ca1611a7c565b5b611cae85828601611c42565b925050602083013567ffffffffffffffff811115611ccf57611cce611a7c565b5b611cdb85828601611c42565b9150509250929050565b5f81519050919050565b5f82825260208201905092915050565b5f5b83811015611d1c578082015181840152602081019050611d01565b5f8484015250505050565b5f611d3182611ce5565b611d3b8185611cef565b9350611d4b818560208601611cff565b611d5481611b3b565b840191505092915050565b5f6020820190508181035f830152611d778184611d27565b905092915050565b5f819050919050565b611d9181611d7f565b8114611d9b575f80fd5b50565b5f81359050611dac81611d88565b92915050565b5f60208284031215611dc757611dc6611a78565b5b5f611dd484828501611d9e565b91505092915050565b5f73ffffffffffffffffffffffffffffffffffffffff82169050919050565b5f611e0682611ddd565b9050919050565b611e1681611dfc565b82525050565b5f602082019050611e2f5f830184611e0d565b92915050565b611e3e81611dfc565b8114611e48575f80fd5b50565b5f81359050611e5981611e35565b92915050565b5f8060408385031215611e7557611e74611a78565b5b5f611e8285828601611e4b565b9250506020611e9385828601611d9e565b9150509250929050565b5f805f60608486031215611eb457611eb3611a78565b5b5f611ec186828701611e4b565b9350506020611ed286828701611e4b565b9250506040611ee386828701611d9e565b9150509250925092565b5f60208284031215611f0257611f01611a78565b5b5f611f0f84828501611e4b565b91505092915050565b611f2181611d7f565b82525050565b5f602082019050611f3a5f830184611f18565b92915050565b611f4981611b00565b8114611f53575f80fd5b50565b5f81359050611f6481611f40565b92915050565b5f8060408385031215611f8057611f7f611a78565b5b5f611f8d85828601611e4b565b9250506020611f9e85828601611f56565b9150509250929050565b5f67ffffffffffffffff821115611fc257611fc1611b4b565b5b611fcb82611b3b565b9050602081019050919050565b5f611fea611fe584611fa8565b611ba9565b90508281526020810184848401111561200657612005611b37565b5b612011848285611bf3565b509392505050565b5f82601f83011261202d5761202c611b33565b5b813561203d848260208601611fd8565b91505092915050565b5f805f806080858703121561205e5761205d611a78565b5b5f61206b87828801611e4b565b945050602061207c87828801611e4b565b935050604061208d87828801611d9e565b925050606085013567ffffffffffffffff8111156120ae576120ad611a7c565b5b6120ba87828801612019565b91505092959194509250565b5f80604083850312156120dc576120db611a78565b5b5f6120e985828601611e4b565b92505060206120fa85828601611e4b565b9150509250929050565b7f4e487b71000000000000000000000000000000000000000000000000000000005f52602260045260245ffd5b5f600282049050600182168061214857607f821691505b60208210810361215b5761215a612104565b5b50919050565b5f819050815f5260205f209050919050565b5f6020601f8301049050919050565b5f82821b905092915050565b5f600883026121bd7fffffffffffffffffffffffffffffffffffffffffffffffffffffffffffffffff82612182565b6121c78683612182565b95508019841693508086168417925050509392505050565b5f819050919050565b5f6122026121fd6121f884611d7f565b6121df565b611d7f565b9050919050565b5f819050919050565b61221b836121e8565b61222f61222782612209565b84845461218e565b825550505050565b5f90565b612243612237565b61224e818484612212565b505050565b5b81811015612271576122665f8261223b565b600181019050612254565b5050565b601f8211156122b65761228781612161565b61229084612173565b8101602085101561229f578190505b6122b36122ab85612173565b830182612253565b50505b505050565b5f82821c905092915050565b5f6122d65f19846008026122bb565b1980831691505092915050565b5f6122ee83836122c7565b9150826002028217905092915050565b61230782611ce5565b67ffffffffffffffff8111156123205761231f611b4b565b5b61232a8254612131565b612335828285612275565b5f60209050601f831160018114612366575f8415612354578287015190505b61235e85826122e3565b8655506123c5565b601f19841661237486612161565b5f5b8281101561239b57848901518255600182019150602085019450602081019050612376565b868310156123b857848901516123b4601f8916826122c7565b8355505b6001600288020188555050505b505050505050565b7f4e487b71000000000000000000000000000000000000000000000000000000005f52601160045260245ffd5b5f61240482611d7f565b91507fffffffffffffffffffffffffffffffffffffffffffffffffffffffffffffffff8203612436576124356123cd565b5b600182019050919050565b5f6060820190506124545f830186611e0d565b6124616020830185611f18565b61246e6040830184611e0d565b949350505050565b7f4e6f7420746865206f776e6572000000000000000000000000000000000000005f82015250565b5f6124aa600d83611cef565b91506124b582612476565b602082019050919050565b5f6020820190508181035f8301526124d78161249e565b9050919050565b5f81905092915050565b5f6124f282611ce5565b6124fc81856124de565b935061250c818560208601611cff565b80840191505092915050565b5f61252382856124e8565b915061252f82846124e8565b91508190509392505050565b5f81519050919050565b5f82825260208201905092915050565b5f61255f8261253b565b6125698185612545565b9350612579818560208601611cff565b61258281611b3b565b840191505092915050565b5f6080820190506125a05f830187611e0d565b6125ad6020830186611e0d565b6125ba6040830185611f18565b81810360608301526125cc8184612555565b905095945050505050565b5f815190506125e581611aab565b92915050565b5f60208284031215612600576125ff611a78565b5b5f61260d848285016125d7565b91505092915050565b7f4e487b71000000000000000000000000000000000000000000000000000000005f52601260045260245ffd5b5f6040820190506126565f830185611e0d565b6126636020830184611f18565b939250505056fea2646970667358221220901878d7130dad6df8f454100bf065381f18df44110a4a4115e9bea1a3dd924764736f6c63430008140033",
  "immutableReferences": {},
  "source": "// SPDX-License-Identifier: MIT\npragma solidity ^0.8.20;\n\nimport \"@openzeppelin/contracts/token/ERC721/ERC721.sol\";\nimport \"@openzeppelin/contracts/access/Ownable.sol\";\n\ncontract PlayerNFT is ERC721, Ownable {\n    uint256 public nextTokenId;\n    mapping(uint256 => string) private playerPublicInfo;\n    mapping(uint256 => string) private playerEncryptedInfo;\n\n    constructor(\n        address initialOwner\n    ) ERC721(\"D&D Player\", \"DDP\") Ownable(initialOwner) {}\n\n    function mintPlayerNFT(\n        string memory publicInfo,\n        string memory encryptedInfo\n    ) public onlyOwner {\n        _mint(msg.sender, nextTokenId);\n        playerPublicInfo[nextTokenId] = publicInfo;\n        playerEncryptedInfo[nextTokenId] = encryptedInfo;\n        nextTokenId++;\n    }\n\n    function getPlayerPublicInfo(\n        uint256 tokenId\n    ) public view returns (string memory) {\n        return playerPublicInfo[tokenId];\n    }\n\n    function getPlayerEncryptedInfo(\n        uint256 tokenId\n    ) public view returns (string memory) {\n        require(ownerOf(tokenId) == msg.sender, \"Not the owner\");\n        return playerEncryptedInfo[tokenId];\n    }\n}\n",
  "sourcePath": "/Users/elichapman/Documents/GitHub/campaign-chain/contracts/PlayerNFT.sol",
  "compiler": {
    "name": "solc",
    "version": "0.8.20+commit.a1b79de6.Emscripten.clang"
  },
  "schemaVersion": "3.4.16",
  "updatedAt": "2024-07-25T00:15:48.428Z",
  "devdoc": {
    "errors": {
      "ERC721IncorrectOwner(address,uint256,address)": [
        {
          "details": "Indicates an error related to the ownership over a particular token. Used in transfers.",
          "params": {
            "owner": "Address of the current owner of a token.",
            "sender": "Address whose tokens are being transferred.",
            "tokenId": "Identifier number of a token."
          }
        }
      ],
      "ERC721InsufficientApproval(address,uint256)": [
        {
          "details": "Indicates a failure with the `operator`s approval. Used in transfers.",
          "params": {
            "operator": "Address that may be allowed to operate on tokens without being their owner.",
            "tokenId": "Identifier number of a token."
          }
        }
      ],
      "ERC721InvalidApprover(address)": [
        {
          "details": "Indicates a failure with the `approver` of a token to be approved. Used in approvals.",
          "params": {
            "approver": "Address initiating an approval operation."
          }
        }
      ],
      "ERC721InvalidOperator(address)": [
        {
          "details": "Indicates a failure with the `operator` to be approved. Used in approvals.",
          "params": {
            "operator": "Address that may be allowed to operate on tokens without being their owner."
          }
        }
      ],
      "ERC721InvalidOwner(address)": [
        {
          "details": "Indicates that an address can't be an owner. For example, `address(0)` is a forbidden owner in EIP-20. Used in balance queries.",
          "params": {
            "owner": "Address of the current owner of a token."
          }
        }
      ],
      "ERC721InvalidReceiver(address)": [
        {
          "details": "Indicates a failure with the token `receiver`. Used in transfers.",
          "params": {
            "receiver": "Address to which tokens are being transferred."
          }
        }
      ],
      "ERC721InvalidSender(address)": [
        {
          "details": "Indicates a failure with the token `sender`. Used in transfers.",
          "params": {
            "sender": "Address whose tokens are being transferred."
          }
        }
      ],
      "ERC721NonexistentToken(uint256)": [
        {
          "details": "Indicates a `tokenId` whose `owner` is the zero address.",
          "params": {
            "tokenId": "Identifier number of a token."
          }
        }
      ],
      "OwnableInvalidOwner(address)": [
        {
          "details": "The owner is not a valid owner account. (eg. `address(0)`)"
        }
      ],
      "OwnableUnauthorizedAccount(address)": [
        {
          "details": "The caller account is not authorized to perform an operation."
        }
      ]
    },
    "events": {
      "Approval(address,address,uint256)": {
        "details": "Emitted when `owner` enables `approved` to manage the `tokenId` token."
      },
      "ApprovalForAll(address,address,bool)": {
        "details": "Emitted when `owner` enables or disables (`approved`) `operator` to manage all of its assets."
      },
      "Transfer(address,address,uint256)": {
        "details": "Emitted when `tokenId` token is transferred from `from` to `to`."
      }
    },
    "kind": "dev",
    "methods": {
      "approve(address,uint256)": {
        "details": "See {IERC721-approve}."
      },
      "balanceOf(address)": {
        "details": "See {IERC721-balanceOf}."
      },
      "getApproved(uint256)": {
        "details": "See {IERC721-getApproved}."
      },
      "isApprovedForAll(address,address)": {
        "details": "See {IERC721-isApprovedForAll}."
      },
      "name()": {
        "details": "See {IERC721Metadata-name}."
      },
      "owner()": {
        "details": "Returns the address of the current owner."
      },
      "ownerOf(uint256)": {
        "details": "See {IERC721-ownerOf}."
      },
      "renounceOwnership()": {
        "details": "Leaves the contract without owner. It will not be possible to call `onlyOwner` functions. Can only be called by the current owner. NOTE: Renouncing ownership will leave the contract without an owner, thereby disabling any functionality that is only available to the owner."
      },
      "safeTransferFrom(address,address,uint256)": {
        "details": "See {IERC721-safeTransferFrom}."
      },
      "safeTransferFrom(address,address,uint256,bytes)": {
        "details": "See {IERC721-safeTransferFrom}."
      },
      "setApprovalForAll(address,bool)": {
        "details": "See {IERC721-setApprovalForAll}."
      },
      "supportsInterface(bytes4)": {
        "details": "See {IERC165-supportsInterface}."
      },
      "symbol()": {
        "details": "See {IERC721Metadata-symbol}."
      },
      "tokenURI(uint256)": {
        "details": "See {IERC721Metadata-tokenURI}."
      },
      "transferFrom(address,address,uint256)": {
        "details": "See {IERC721-transferFrom}."
      },
      "transferOwnership(address)": {
        "details": "Transfers ownership of the contract to a new account (`newOwner`). Can only be called by the current owner."
      }
    },
    "version": 1
  },
  "userdoc": {
    "kind": "user",
    "methods": {},
    "version": 1
  }
}